:02000002B0004C
:1040000000400B00FC520B00000006000C000502F3
:084010000401E50C00000000B2
:04401800F44F0B0056
:10401C0009480A49884208B505D0094A824202D0AB
:10402C00121A00F02EFF0748074A0021121A00F05E
:10403C0036FF014808BD00BF40E6032068520B0064
:10404C00ACE60320ACE60320EDE7032070B5074E89
:10405C00074C00F01DFDA41BA4080025AC4200D1A8
:10406C0070BD56F8043B98470135F7E710520B002A
:10407C0034520B0000F023B808B500F02BF8BDE863
:10408C00084000F0BDBC00F0F1B900F0F7B90078C1
:10409C00B0FA80F04009704701230370704707B5F0
:1040AC000E2000F0CFFE1423009340F6FF72052380
:1040BC00002100F073FC404303B05DF804FB08B52D
:1040CC000121072000F094FEBDE8084000210E20DD
:1040DC0000F08EBE08B5FFF7E2FF00F06BFC01218B
:1040EC00072000F096FEFFF7DAFF00F063FCBDE856
:1040FC0008400021072000F08CBE000008B501200C
:10410C00002100F097F9064B0022C3E90022A2F52A
:10411C0080329A60BDE80840012000F07BB900BFF6
:10412C00ACE6032008B5024B1B681B68019308BD65
:10413C004C02030008B5024B1B681B69019308BDB8
:10414C004C02030008B5024B1B685B69019308BD68
:10415C004C02030008B5024B1B689B69019308BD18
:10416C004C02030008B5024B1B68DB69019308BDC8
:10417C004C02030008B5024B1B681B6A019308BD77
:10418C004C02030008B5024B1B681B6A019308BD67
:10419C002802030008B5024B1B685B6A019308BD3B
:1041AC002802030008B5024B1B689B6A019308BDEB
:1041BC002802030008B5024B1B68DB6A019308BD9B
:1041CC002802030008B5024B1B681B6B019308BD4A
:1041DC002802030008B5024B1B685B6B019308BDFA
:1041EC002802030008B5024B1B681B6C019308BD29
:1041FC002802030008B5024B1B68DB69019308BD5C
:10420C003002030008B5024B1B681B6A019308BD02
:10421C003002030008B5024B1B68DB68019308BD34
:10422C003C02030008B5024B1B681B69019308BDD7
:10423C003C02030008B5024B1B685B69019308BD87
:10424C003C02030008B5024B1B689B69019308BD37
:10425C003C02030008B5024B1B68DB69019308BDE7
:10426C003C02030008B5024B1B681B6A019308BD96
:10427C003C02030008B5024B1B689B6A019308BD06
:10428C003C02030008B5024B1B681B6C019308BD74
:10429C003C02030008B5024B1B685B69019308BD27
:1042AC006402030008B5024B1B685B6C019308BDEC
:1042BC004802030008B5024B1B685B68019308BDFC
:1042CC001802030008B5024B1B685B69019308BD1B
:1042DC001802030008B5024B1B685B68019308BD0C
:1042EC002C02030008B5024B1B689B68019308BDA8
:1042FC002C02030008B5024B1B68DB68019308BD58
:10430C002C02030008B5024B1B681B69019308BD06
:10431C002C02030008B5024B1B681B6B019308BDF4
:10432C002C02030008B5024B1B689B68019308BD67
:10433C006802030008B5024B1B68DB68019308BDDB
:10434C006802030008B5024B1B68DB6B019308BDC8
:10435C004402030008B5024B1B685B68019308BD5F
:10436C004002030008B5024B1B689B68019308BD13
:10437C004002030008B5024B1B68DB68019308BDC3
:10438C004002030008B5024B1B681B69019308BD72
:10439C004002030008B5024B1B685B69019308BD22
:1043AC004002030008B5024B1B689B69019308BDD2
:1043BC004002030008B5024B1B68DB69019308BD82
:1043CC004002030008B5024B1B681B6A019308BD31
:1043DC004002030008B5024B1B681B6B019308BD20
:1043EC004002030008B5024B1B685B6B019308BDD0
:1043FC004002030008B5024B1B681B6C019308BDFF
:10440C004002030008B5024B1B685B6C019308BDAE
:10441C004002030008B5024B1B685B68019308BDA2
:10442C002002030008B5024B1B685B69019308BDB1
:10443C002002030008B5024B1B68DB6A019308BD20
:10444C002002030008B5034B1B68D3F88830019396
:10445C0008BD00002002030008B5034B1B68D3F80D
:10446C009430019308BD00002002030008B5024BF4
:10447C001B681B68019308BD1C02030008B5024BA6
:10448C001B685B68019308BD1C02030008B5024B56
:10449C001B681B6C019308BD1C02030008B5024B82
:1044AC001B685B6C019308BD1C0203000023406871
:1044BC001A46FFF74FBF406800220221FFF75ABF90
:1044CC00002240681146FFF74DBF0022406811469C
:1044DC00FFF758BF002340681A461946FFF75ABF2A
:1044EC00002340681A461946FFF75CBF406800215C
:1044FC00FFF780BF40680021FFF784BF40680022AF
:10450C0081F00101FFF756BF40680022FFF762BF40
:10451C00002240681146FFF765BF00224068114633
:10452C00FFF750BF2DE9F04395B014460D460746F2
:10453C0000F0F6F900211C220DA8009100F0AFFC50
:10454C0040230C9320466B460CAA0021FFF7F2FE89
:10455C00044600284BD1024601216868FFF712FF80
:10456C000221804622466868FFF70CFF009E8146B8
:10457C002146002E3BD0002939D17368022B03D081
:10458C000A2B11D0F669F4E7B8F1000FFAD0716973
:10459C0006A8043107AD00F0F1F90FCD3C1D0FC496
:1045AC002B6823704146EDE7B9F1000FEAD074692E
:1045BC00102201A800F073FC06238DF8143001AD15
:1045CC0004F108031834186859682A4603C20833E2
:1045DC00A3421546F7D101A906A807AD00F0AEF924
:1045EC000FCD3C1D0FC42B6823704946CAE70098B9
:1045FC00FFF798FE384615B0BDE8F083024B034A2E
:10460C001A6000225A607047B8E6032010500B0065
:10461C00002240681146FFF7B5BE002240681146E3
:10462C00FFF7D0BE002240681146FFF7DBBE4068A2
:10463C000022FFF7CFBE4068002281F00101FFF796
:10464C00B9BE002340681A461946FFF7ABBE0023DB
:10465C0040681A461946FFF79DBE00224068114675
:10466C00FFF780BE406800220221FFF783BE0023C3
:10467C0040681A46FFF76EBE024B04225A60024A8B
:10468C001A607047C0E603204C500B007047417411
:10469C00704708B5007CFFF7EDFD20EAE07008BD1F
:1046AC0008B5007CFFF7BEFD20EAE07008BD08B538
:1046BC00007CFFF7C7FD40EAE07008BD08B5007C40
:1046CC00FFF7B8FD40EAE07008BD007CFFF7C2BD03
:1046DC0037B5457C04462DB1207C03B0BDE8304095
:1046EC00FFF798BD007C0191FFF7C4FD00280199EC
:1046FC00F2DC284603B030BD10B514210446FFF798
:10470C00C4FC204610BD000010B54FF47A7304466B
:10471C00084611460022C4E90123044B23600123FF
:10472C0020746374FFF7AEFD204610BD88500B005B
:10473C007047F8B5064615460C468F18BC4206D095
:10474C00336814F8011B9B6830469847F6E72846F7
:10475C00F8BD007C0022FFF715BD007C0021FFF79F
:10476C0019BD007C0021FFF71DBD007C0021FFF767
:10477C0021BD007C0021FFF725BD10B51421044696
:10478C00FFF783FC204610BD10B54FF47A73044636
:10479C0008460021C4E90113034B23602074114621
:1047AC00FFF720FD204610BDB8500B004174704738
:1047BC007047704708B50021007CFFF7CBFC40EA3E
:1047CC00E07008BD08B50121007CFFF7C3FC40EA8E
:1047DC00E07008BD08B5007CFFF7B4FC20EAE0707F
:1047EC0008BD08B5007CFFF7A5FC20EAE07008BD09
:1047FC0013B50446007C0191FFF7A4FC0028019935
:10480C0001DC607C20B1207CFFF7ACFC20EAE0707E
:10481C0002B010BD007CFFF7ADBC10B514210446EE
:10482C00FFF733FC204610BD10B54FF47A730446E5
:10483C0008460021C4E90113044B236001232074B2
:10484C0063741146FFF76EFC204610BDE0500B0060
:10485C0010B514220446002100F021FB204610BDA7
:10486C0010B50F4C88B003A8FFF7F2FF2178BFF307
:10487C005B8F11F001010FD120460191FFF707FC6E
:10488C00019948B103AA0748FFF7CEFF2046FFF76E
:10489C0003FC054800F0EFFA024808B010BD00BF59
:1048AC00C8E60320CCE60320BD470B00704710B5CB
:1048BC0018210446FFF7E9FB204610BDF0B5037D37
:1048CC00062B8DB00E4600F104074FF0000412D0F9
:1048DC0000F1080515F8011D0A22304600F04DF9CB
:1048EC00AF42044419D0002CF4D02E21304600F0F5
:1048FC0041F90444EEE72F236A4639460A208DF825
:10490C000040FFF7C7FC684600F000FB3368024626
:10491C00DB68694630469847044620460DB0F0BD2A
:10492C0010B5054B0446112240F8043B002100F061
:10493C00B6FA204610BD00BF10510B000346074AC3
:10494C0010B543F8042B01F1100251F8044B43F855
:10495C00044B9142F9D10A781A7010BD10510B001A
:10496C0010B59DF8084044EA032343EA024242EAA8
:10497C00016104234160037510BD000007B5064BAF
:10498C000360CB7800938B784A780978FFF7E8FFBF
:10499C0003B05DF804FB00BF10510B008A4210B548
:1049AC0007D0441A0298C01A4443501A94FBF0F0F2
:1049BC00184410BD0021FFF735BD0000014B1860F5
:1049CC00704700BF44E6032008B50B4B43B1FFF71B
:1049DC0047FF03681B699847002801DDAFF300808F
:1049EC00064B43B100F0A2F903681B6998470028F5
:1049FC0001DDAFF3008008BD0000000000000000E6
:104A0C0008B5FFF7E1FFFFF75DFC014B186008BD2F
:104A1C0034E703200548064A064908B5121A00F087
:104A2C0030FA054B054A1A6008BD00BF00F403209C
:104A3C0004F4032064520B0000F403201E1C279A7C
:104A4C0007B5002300931A466FF07701FFF704FDBA
:104A5C0003B05DF804FB000007B543880A2B08D0AF
:104A6C00502B0BD1094B1B684BB103B05DF804EB19
:104A7C001847FFF7E5FF03B05DF804FB0023009334
:104A8C001A466FF07701FFF7E7FCF4E7E4E6032042
:104A9C0010B512480021FFF701FD114B1A68114B9C
:104AAC009A42114B0CBF012200221A7001D0FFF761
:104ABC00B1FFFFF7FFFB044600F0FAF90B4B13B103
:104ACC002046AFF3008000210848FFF73BFCBDE80F
:104ADC00104007480021FFF7B5BC00BFC9490B00C7
:104AEC0000F403201E1C279AE0E6032000000000BF
:104AFC00654A0B00014B00229A607047E8E60320E0
:104B0C00024B1A68024B1A60704700BF40E6032044
:104B1C00F8E60320014B024A1A607047FCE60320BA
:104B2C0038510B00F8B506460D468F180024BD42CF
:104B3C000CD0336815F8011B9B6830469847031E50
:104B4C0001DB1C44F3E7002C08BF1C462046F8BDD3
:104B5C0013B50446084659B1019100F0D7F9236802
:104B6C000199DB680246204602B0BDE810401847A8
:104B7C0002B010BD03689B68184730B58BB000239A
:104B8C00012A8DF8243098BF0A2209AC0D46B1FBDE
:104B9C00F2F101FB125303F0FF03092B94BF3033E6
:104BAC003733DBB2AA4204F8013DEFD92146FFF7B7
:104BBC00CFFF0BB030BD0000024800230360FFF7AD
:104BCC0071BB00BF00E70320054B02221A60054BA6
:104BDC00054A9A600020C3E90000FFF71BBC00BF28
:104BEC0010E7032004E703200000FFFF10B5044684
:104BFC0008462170FFF7FEFA00236360204610BDC3
:104C0C00002240681146FFF7DDBB002240681146C8
:104C1C00FFF7E8BB40680022FFF7DCBB40680022CE
:104C2C0081F00101FFF7C6BB002340681A46194604
:104C3C00FFF7B8BB002340681A461946FFF7AABB1A
:104C4C00002240681146FFF79DBB002240681146C8
:104C5C00FFF788BB406800220221FFF78BBB0023C3
:104C6C0040681A46FFF776BB024B03225A60024A91
:104C7C001A60704714E7032044510B007047000082
:104C8C0038B5202514230446036085600561064968
:104C9C00284600F0EEF804496060284600F0E9F878
:104CAC00E060204638BD00BF78510B0030B50E4D8A
:104CBC002978BFF35B8F11F0010487B011D128461E
:104CCC00FFF7E5F968B101A8FFF7DAFF01AA214661
:104CDC000648FFF759FD2846FFF7DEF9044800F0B7
:104CEC00CAF8024807B030BD1CE7032020E70320B8
:104CFC00894C0B007047000038B5044614252A4631
:104D0C00002100F0CCF82580402507492581284654
:104D1C00258200F0AEF804496060284600F0A9F83E
:104D2C00E060204638BD00BF78510B0030B50E4D09
:104D3C002978BFF35B8F11F0010487B011D128469D
:104D4C00FFF7A5F968B101A8FFF7D6FF01AA214624
:104D5C000648FFF7D9FC2846FFF79EF9044800F0F7
:104D6C008AF8024807B030BD38E703203CE703203F
:104D7C00014D0B00232813B502D9002002B010BD41
:104D8C00A0F10B03022B1AD8174C2178BFF35B8FC1
:104D9C0011F001010BD120460191FFF778F901992F
:104DAC0028B11248FFF722FF2046FFF775F90F4B89
:104DBC001878FFF727FA0028DFD10120DEE7012859
:104DCC0009D8FFF773FF0021007CFFF703FA80F08E
:104DDC000100C0B2D2E709380128EED8FFF7A6FFD0
:104DEC00007CFFF73FFAF2E750E7032054E703207B
:104DFC00232838B504460D460AD8FF2908D0FFF7FA
:104E0C00B9FF28B129462046BDE83840FFF76ABAF9
:104E1C0038BD38B504460D46FFF76CFAFF2810D0A4
:104E2C00062804D84D2323FA00F0C30709D42046E2
:104E3C00FFF7A0FF28B129462046BDE83840FFF710
:104E4C0061BA38BD0D2810B504469CBF0E34A4B20F
:104E5C002046FFF78FFF50B103212046FFF73AFAA7
:104E6C00032804D12046BDE81040FFF753BA0020B8
:104E7C0010BDFFF708B9002301461A46184600F08A
:104E8C004DB80A44914200F1FF3300D1704710B580
:104E9C0011F8014B03F8014F9142F9D110BD0244B6
:104EAC000346934200D1704703F8011BF9E7000059
:104EBC0038B5104B1D68AB6B0446B3B91820FFF71F
:104ECC00D5FA0246A86320B90B4B0C484221FFF7D8
:104EDC00DDFA0B490B4BC0E900130B4B83600B2322
:104EEC00838100210120C2E90401AB6B00221C610B
:104EFC005A6138BD44E6032079510B0090510B00E8
:104F0C000E33CDAB34126DE6ECDE0500034613F820
:104F1C00012B002AFBD1181A013870472DE9F843F0
:104F2C00DFF8B8800646D8F800001F460D469146BB
:104F3C0000F056F8254B1C6834B9254C1C60254BE9
:104F4C0013B11B68C4F8883063681F2B07DDD8F8D1
:104F5C00000000F047F84FF0FF30BDE8F8834EB387
:104F6C00D4F8880088B91C4B23B9D8F8000000F09D
:104F7C0038F8F0E74FF48470FFF778FA0028F4D093
:104F8C000023C0E94033C4F88800636840F82390DC
:104F9C0001229A4000EB8301D0F800311343C0F892
:104FAC000031022EC1F8807002BFD0F804311343D7
:104FBC00C0F804316368D8F800005A1C02336260F0
:104FCC0044F8235000F00EF80020C6E7E8E7032071
:104FDC005CE703200000000079440B00A8E60320E6
:104FEC0070477047704700001D400B0059400B0084
:104FFC0081400B0085400B00000000000000000009
:10500C0000000000B9440B00C3440B00CD440B005E
:10501C00D7440B00E1440B00ED440B00F9440B00AA
:10502C0001450B0009450B0015450B001D450B00F8
:10503C0027450B0031450B0000000000000000006C
:10504C007B460B0071460B0067460B001D460B00A0
:10505C005B460B004F460B00F9440B0001450B005F
:10506C0043460B003B460B0031460B0027460B001A
:10507C0031450B00000000000000000099460B00B9
:10508C0005470B00DD460B00314B0B00AD460B000A
:10509C00C9460B00BB460B00D7460B009B460B00CA
:1050AC009F460B0000000000000000003D470B0075
:1050BC0087470B005F470B003F470B0067470B0010
:1050CC006F470B0077470B007F470B000000000079
:1050DC0000000000BF470B0027480B00FD470B00EA
:1050EC00314B0B00EF470B00C1470B00D1470B00B6
:1050FC0021480B00E1470B00B9470B0000000000F2
:10510C0000000000C9480B00B9480B00BB480B005D
:10511C0025592D256D2D25645425483A254D3A25C4
:10512C0053257A0061736374696D6500617070005A
:10513C0000000000000000006B4C0B00614C0B00E9
:10514C00574C0B004D4C0B00414C0B00354C0B00DD
:10515C00F9440B0001450B00294C0B00214C0B00B2
:10516C00174C0B000D4C0B0031450B000052454504
:10517C004E54206D616C6C6F632073756363656551
:10518C00646564002F6D6E742F776F726B73706132
:10519C0063652F776F726B73706163652F47434341
:1051AC002D31302D706970656C696E652F6A656E76
:1051BC006B696E732D4743432D31302D70697065CB
:1051CC006C696E652D34385F3230323031313234A7
:1051DC005F313630363138303634312F7372632FBD
:1051EC006E65776C69622F6E65776C69622F6C697E
:1051FC0062632F7374646C69622F72616E642E63C8
:10520C000000000009410B0009460B0085460B000D
:10521C00014B0B000D4B0B00214B0B00C54B0B0036
:10522C00D54B0B00754C0B0000000000000000007B
:04523C00000000006E
:10524000040000001400000003000000474E550059
:10525000EBC8D333BD2DBC39CEF9768DFBA380AA24
:045260006407E5BD3D
:045264000000000046
:1052680030510B0048E60320000000000000000059
:105278000000000000000000000000000000000026
:105288000000000000000000000000000000000016
:105298000000000000000000000000000000000006
:1052A80000000000000000000000000000000000F6
:1052B80000000000000000000000000000000000E6
:0C52C8000000000000000000ECE70320E4
:1052D400FFFFFFFF00000102030405060708090A97
:1052E4000B0C0D0E0F101112131415161718191A92
:0852F4001B1C1D1E1F202800D9
:0452FC00785634129A
:04000003B000401CED
:00000001FF
